:020000040800F2
:10000000B808002029020008E71E0008511B00085C
:10001000E51E0008490500088322000800000000D2
:10002000000000000000000000000000EB1E0008BF
:10003000E105000800000000E91E0008ED1E0008B0
:10004000430200084302000843020008430200087C
:10005000430200084302000843020008430200086C
:10006000430200084302000843020008430200085C
:10007000430200084302000843020008430200084C
:100080004D0500084302000843020008430200082F
:10009000430200084302000843020008430200082C
:1000A000430200084302000843020008430200081C
:1000B000430200084302000843020008430200080C
:1000C00043020008430200084302000843020008FC
:1000D00043020008430200084302000843020008EC
:1000E00043020008430200084302000843020008DC
:1000F00043020008430200084302000843020008CC
:1001000043020008430200084302000843020008BB
:100110004302000843020008951F0008430200083C
:100120005905000843020008430200084302000882
:10013000430200084302000843020008430200088B
:10014000430200084302000843020008430200087B
:10015000430200084302000843020008430200086B
:10016000430200084302000843020008430200085B
:100170004302000843020008430200080000000098
:10018000430200084302000800F002F800F03CF8C7
:100190000AA090E8000C82448344AAF10107DA45E2
:1001A00001D100F031F8AFF2090EBAE80F0013F0F8
:1001B000010F18BFFB1A43F0010318474C21000040
:1001C0006C210000103A24BF78C878C1FAD85207D1
:1001D00024BF30C830C144BF04680C6070470000C1
:1001E0000023002400250026103A28BF78C1FBD840
:1001F000520728BF30C148BF0B6070471FB502F0DF
:100200006DF81FBD10B510BD00F0D4F81146FFF712
:10021000F5FF02F047F800F0F2F803B4FFF7F2FF41
:1002200003BC00F0F5F80000094880470948004782
:10023000FEE7FEE7FEE7FEE7FEE7FEE7FEE7FEE796
:10024000FEE7FEE704480549054A064B70470000F3
:10025000851F000889010008B8020020B8080020A6
:10026000B8040020B804002053EA020C00F06980B2
:100270002DE9F04B4FF00006002B1FBFB3FA83F5BA
:1002800003FA05F424FA05F65E4012BF1643B2FAEB
:1002900082F502FA05F4C5F120051EBF22FA05FC1D
:1002A00044EA0C04203556EA044C4FEA144418BFC3
:1002B000641C4FF000084FF00009904271EB030CF2
:1002C00039D3002919BFB1FA81F701FA07F6B0FA5C
:1002D00080F700FA07F6C7F120071EBF20FA07FCD7
:1002E00046EA0C062037B6FBF4FCA7EB0507103FE7
:1002F00007F01F0BCBF120060CFA0BFB2CFA06F6CD
:1003000044BFB3460026202FA4BF5E464FF0000B2B
:100310005BEA060C08BF4FF0010B19EB0B09ABFBB6
:10032000027C48EB0608C01B06FB02CC0BFB03CC8F
:1003300071EB0C01C1E70B46024641464846BDE859
:10034000F08B13B54FF000004FF00001AFF30080C9
:10035000BDE81C4070474FF0000200B513469446BC
:100360009646203922BFA0E80C50A0E80C50B1F10D
:100370002001BFF4F7AF090728BFA0E80C5048BF21
:100380000CC05DF804EB890028BF40F8042B08BFBF
:10039000704748BF20F8022B11F0804F18BF00F8BB
:1003A000012B704770477047704700000048704746
:1003B000580200207546FFF7F9FFAE460500694672
:1003C000534620F00700854618B020B5FFF73AFFE6
:1003D000BDE820404FF000064FF000074FF0000846
:1003E0004FF0000B21F00701AC46ACE8C009ACE8C7
:1003F000C009ACE8C009ACE8C0098D46704710B52B
:100400000446AFF300802046BDE81040FFF705BF6B
:1004100001491820ABBEFEE726000200704700002D
:10042000464910B54A6822F440324A604A68436837
:100430001A434A6001684A6822F480724A6001687F
:100440004A68036942EA03224A6001684A6822F066
:1004500040724A6001684A6883681A434A600168CA
:100460008A6822F400628A6001688A68C3681A4355
:100470008A60816A6FF07062D14201688A6822F0F6
:1004800070628A6001688A680CD0836A1A438A6045
:1004900001688A6822F040528A6001688A68C36AEB
:1004A0001A4301E022F040528A6001688A6822F013
:1004B00002028A6001688A68037E42EA43028A6017
:1004C00090F82010002901684A680FD042F40062B9
:1004D0004A6001684A6822F460424A6001684A68DA
:1004E000174C436A04EB43331A4301E022F40062E1
:1004F0004A600168CA6A22F47002CA620168CA6A64
:10050000838B104C04EB03531A43CA6201688A6858
:1005100022F400728A6001688A6890F8303042EAFA
:1005200043228A6001688A6822F480628A600168D6
:100530008A68406942EA8020886010BD002301403B
:1005400000E0FFFF0000F0FFFEE70000014800F0C0
:1005500031BA0000CC000020014800F02BBA0000A6
:100560005800002001681823CAB2103AB2FBF3F217
:10057000054B6FF30901032A9B5CC36500D9091D74
:100580008165084670470000E622000810B5014664
:1005900000208B698A6A4FF0C07453B1B3F5005FD5
:1005A00015D072B1012A0CD0022A0AD0032A09D12F
:1005B00004E01AB1012A06D0022A03D1C96AC9018E
:1005C00000D5012010BDC96AA142FAD010BD002A91
:1005D000F7D0012AF2D0022AF3D0032AF3D010BDBB
:1005E000704772B6FEE7000078B50024009490F8DA
:1005F0003C20012A19D0012280F83C200A680723F8
:100600000568092A13D9EE680A3A02EB42029340C0
:100610009E43EE600B788A680A3B03EB43039A40E3
:100620000368DD682A43DA6010E0022078BD2E6995
:1006300002EB420293409E432E610B788A6803EBE3
:1006400043039A4003681D692A431A614A681F23BD
:10065000072A13D205686E6B521E02EB820293408A
:100660009E436E630B790A885B1E92B203EB830391
:100670009A4003685D6B2A435A6327E005680D2A98
:1006800012D22E6BD21F02EB820293409E432E6346
:100690000B790A88DB1F92B203EB83039A4003684D
:1006A0001D6B2A431A6311E0EE6A0D3A02EB8202D7
:1006B00093409E43EE620B790A880D3B92B203EBA6
:1006C00083039A400368DD6A2A43DA62164B0568A1
:1006D000144A9D4206D10D68122D03D1556845F488
:1006E0008005556005689D4218D10B68102B01D01C
:1006F000112B13D1536843F4000353600968102988
:100700000CD10A490A4A0968B1FBF2F101EB8101F7
:10071000490000E0491E00910029FBD180F83C40CF
:10072000002078BD00230140002001400C00002083
:1007300040420F0070B504004FF0000503D0206C5C
:10074000002610B107E0012070BD204600F01CF823
:10075000666484F83C60206CC00610D4206C20F4E1
:10076000885040F0020020642046FFF759FE66647E
:10077000206C20F0020040F00100206400E0012520
:1007800084F83C60284670BD70B586B006461421DA
:100790006846FFF7E0FD1D493068884234D11C48A7
:1007A0000025016841F480710160006800F48070E8
:1007B000059017481438016841F001010160006894
:1007C000694600F001000590022000900320CDE969
:1007D0000105104800F028FA104C0F48C4E9000544
:1007E0000015A560C4E90350400060618000A0616D
:1007F0004011C4E907052046656200F0ABF908B175
:10080000FFF7EFFEB463A66306B070BD00200140A1
:1008100044380240000002401064024058000020AA
:10082000704770B500B3F9B14379012B1ED0012692
:1008300046710223037105682C6802F0100340F62C
:10084000FE729A409443D1E900210A439A40224320
:100850002A6001680A68C0249C40A2430A600671AD
:1008600000214171084670BD012070BD022070BD9D
:1008700070472DE9F041044600680668456BB104F5
:100880004FF0040710D5A9040ED52771216941F056
:1008900001012161F90241632068016821F480515E
:1008A00001602046FFF7E4FFB00014D5A80012D580
:1008B0002771206940F00200206121684FF000504C
:1008C00048632068016821F0805101602046BDE83E
:1008D000F041FFF7A5BFBDE8F08170B5040003D07B
:1008E0002079002510B105E0012070BD657120461A
:1008F00000F008F8022020712561012020710020FD
:1009000070BD000070B586B0054614216846FFF73B
:1009100022FD2349286888423FD1224800260168E9
:1009200041F000510160006800F0005005901D4842
:100930001038016841F0010101600068694600F06B
:1009400001000590102000900320CDE90106164813
:1009500000F06AF9164C154820604FF06060606046
:100960004020C4E90206000120614000606180006F
:10097000A0614011C4E907062046666200F0EAF86B
:1009800008B1FFF72EFEAC60002201213620A563DE
:1009900000F0AEFB362000F09DFB06B070BD0000FD
:1009A000007400404038024000000240886002406D
:1009B000CC0000202DE9F84304464FF00009CDF8A3
:1009C000009063484FF41651A56D0068B0FBF1F735
:1009D0002E6894F85C10082000FA01F131420FD023
:1009E00021680A6852070BD50A6822F004020A60DF
:1009F00094F85C108840A860606D40F0010060656C
:100A000094F85C104FF0010808FA01F0304208D069
:100A100021684969090604D5A860606D40F00200AC
:100A2000606594F85C1004208840304208D021684A
:100A30000968890704D5A860606D40F0040060650E
:100A400094F85C1010208840304218D02168096862
:100A5000090714D5A86020680168490304D5006817
:100A6000000308D5A16C07E00168C90503D401683B
:100A700021F008010160216C09B12046884794F8F3
:100A80005C1020208840304231D021680968C906B6
:100A90002DD5A86094F8350005282068016806D097
:100AA000490347D5006800031DD4616C1CE021F0A8
:100AB000160101602068416921F080014161206CCC
:100AC00008B9A06C20B12068016821F0080101601C
:100AD00094F85C103F208840A86084F8358084F842
:100AE0003490216D1FE0E16B09B120468847606DAD
:100AF00000282BD0606DC00714D0052084F8350085
:100B00002068016821F0010101600098401C0090FC
:100B1000B84203D820680068C007F6D184F8358051
:100B200084F83490E16C002910D001B02046BDE873
:100B3000F04308470168C905D5D4016821F01001C8
:100B4000016084F8358084F83490CCE7BDE8F88300
:100B50000C0000202DE9F041044600F063F9064640
:100B60005CB1022084F83500002584F834502068F8
:100B7000016821F0010101600DE00120BDE8F08174
:100B800000F050F9801B052805D92020606503205E
:100B900084F83500F2E720680068C007F0D12268C9
:100BA000116820480140D4E901031843D4E9033611
:100BB0003343184363691843A3691843E36918432F
:100BC000236A18430843616A042903D1D4E90B134B
:100BD00019430843106020684069666A20F00701E5
:100BE00030460E43012704280CD1A06A0643E06A70
:100BF00040B12046FFF7CAFC20B14020606584F870
:100C00003570BAE7206846612046FFF7ABFC94F8E0
:100C10005C203F2191408160656584F8357000203B
:100C2000ACE700003F8010F02DE9F84FDFF8BCA1E1
:100C30000022012503264FF00F090AF1040BAAF147
:100C4000040E00BF0B6805FA02F42340A34270D1E2
:100C50000F7907F00307012F01D0022F16D1876803
:100C60004FEA420806FA08FC27EA0C07D1F80CC044
:100C70000CFA08FC4CEA070CC0F808C04768A74308
:100C80000C79C4F3001494403C4344600C79E44371
:100C9000A4070AD0C4684FEA420C06FA0CF7BC431A
:100CA0008F6807FA0CF72743C7600C7904F0030438
:100CB000022C12D1D40800EB840CDCF8204057073A
:100CC000FF0E09FA07F824EA0804D1F8108008FAA0
:100CD00007F848EA0408CCF8208004684FEA420C80
:100CE00006FA0CF7BC430F7907F0030707FA0CF775
:100CF000274307604C6814F4403F70D03C4C276891
:100D000047F480472760246822F0030704F48044F6
:100D10000094384C07EB040CDCF8084897074FEABE
:100D2000177809FA08F7BC43334FB84202D10027BD
:100D300024E054E0314FB84201D101271EE0304F8A
:100D4000B84201D1022719E02E4FB84201D1032742
:100D500014E02D4FB84201D104270FE02B4FB842C9
:100D600001D105270AE02A4FB84201D1062705E044
:100D7000284FB84201D1072700E0082707FA08F7F3
:100D80002743CCF80878DAF800405746D1F804C079
:100D90009C435FEACC2C00D51C433C60DBF8004050
:100DA0005F46D1F804C09C435FEA8C2C00D51C43FD
:100DB0003C60DEF800407746D1F804C09C435FEA0F
:100DC0008C3C00D51C433C60084F083F3C68D1F880
:100DD00004C09C435FEACC3C00D51C433C60521CE1
:100DE000102AFFF42FAFBDE8F88F0000083C014047
:100DF000443802400030014000000240000402403C
:100E000000080240000C02400010024000140240A2
:100E100000180240001C02400AB1816170470904B9
:100E2000FBE70000014880687047000000000020D8
:100E300070B5040025D094F83D00002520B984F851
:100E40003C50204600F0B8F8242084F83D0020688B
:100E5000016821F0010101602068016841F400414E
:100E600001602068016821F40041016000F00CFA83
:100E70004D4A6168914201D84C4900E04C49884292
:100E800001D2012070BD4B492368B0FBF1F15E68CF
:100E900026F03F060E435E606368934206D94FF426
:100EA000967359434FF47A73B1FBF3F12368491CED
:100EB0001E6A26F03F06314319626168914210D8DC
:100EC0004900401EB0FBF1F2521CC2F30B02042A8F
:100ED00001D2042022E0B0FBF1F0401CC0F30B0073
:100EE0001CE0A268F2B301EBC10303EB0116431E41
:100EF000B3FBF6F35B1C43F480431B0549D092B36C
:100F000001EBC10202EB0111401EB0FBF1F0401CED
:100F1000C0F30B0040F4804040F400402168CA69EF
:100F20004CF6FF739A431043C861D4E9071001439C
:100F30002068026822F0C00211430160D4E9030175
:100F400001432068826848F2FF339A43114381606D
:100F5000D4E9050108432168CA6822F0FF02104362
:100F6000C86001E00EE016E02068016841F0010170
:100F700001602564202084F83D00256384F83E50FC
:100F8000002070BD01EB4106431EB3FBF6F35B1C72
:100F9000B3E70120C2E701EB4101401EB0FBF1F0D5
:100FA000401CC0F30B00B7E7A086010080841E0040
:100FB00000093D0040420F0010B586B004461421E0
:100FC0006846FFF7C8F91349206888421FD11248C4
:100FD0000021026842F0200202600068122200F044
:100FE000200005900320CDE90210CDE90002042085
:100FF000049069460948FFF717FE0748103001685A
:1010000041F480010160006800F48000059006B0A2
:1010100010BD00000058004030380240001402406B
:101020000248816802781144816070470000002006
:101030000B4810B5016841F400710160016841F48A
:1010400080610160016841F480710160032000F05B
:101050006FF80F2000F006F800F024F8002010BD13
:10106000003C024070B50D4D04464FF47A7128786B
:10107000B1FBF0F00A490968B1FBF0F000F0FAFAB0
:1010800048B9102C07D200222146501E00F030F83B
:1010900000206C6070BD012070BD000000000020C9
:1010A0000C0000200A4808B5016841F48041016045
:1010B000006800F4804000900548001F016841F07E
:1010C00080510160006800F08050009008BD000071
:1010D00044380240002809DB00F01F020121914042
:1010E0004009800000F1E020C0F8001170470000C6
:1010F000F0B40E4B1B680C46C3F30223C3F1070583
:10110000042D00D90425191D072901D2002300E070
:10111000DB1E012606FA05F1491E214099409E403A
:10112000761E16403143F0BC01F0ACB80CED00E087
:10113000064900F0070208684FF6FF03184040EA2E
:101140000220034A10430860704700000CED00E0E5
:101150000000FA052DE9F0470E46050065D0DFF8DE
:101160001481D8F80000F7B200F00700B04207D2AF
:1011700088F80070D8F8000000F00700B04254D1A1
:1011800028683D4C810712D5400703D5206840F4FC
:10119000E05020602878000703D5206840F46040C4
:1011A00020602068A96820F0F000084320602878BB
:1011B000C0072DD0304968680839012812D00228AC
:1011C00013D0032811D00968890700292DDA216876
:1011D00021F0030101432160FFF724FE814641F223
:1011E000883A0EE009688903EFE709688901ECE7AE
:1011F000FFF718FEA0EB0901514502D90320BDE815
:10120000F0872068696800F00C00B0EB810FEFD127
:10121000D8F80010404601F00701B14207D9077025
:10122000006800F00700B04201D00120E7E728780D
:10123000400705D52068E96820F4E05008432060A5
:101240002878000706D52068296920F4604040EA24
:10125000C100206000F028F82168084AC1F303119A
:10126000515CC8400649086006480068FFF7FAFE6E
:101270000020C4E7003C024008380240EE2200088B
:101280000C0000200400002004480549006809689B
:10129000044AC1F38221515CC84070470C00002011
:1012A00008380240FE220008154810B5006810F00A
:1012B0000C02144813D04110042A0FD0082A0ED172
:1012C0000F4C241F2268236802F03F025B0207D5FF
:1012D0002068C0F38810A0FB010106E0084610BD9D
:1012E0002168C1F38811A1FB00010023FEF7BCFFB8
:1012F0002168C1F30141491C4900B0FBF1F010BD68
:10130000083802400024F4002DE9F84F04006ED0A4
:101310002078DFF84C93C007A9F104054AD009F101
:1013200004000168C1F38101012908D00068C0F3FD
:10133000810002280AD1D9F80000400206D52868A9
:10134000800337D560680028E1D033E06068B0F5ED
:10135000803F10D0B0F5A02F286810D020F4803046
:101360002860286820F4802028606068A8B1FFF712
:1013700059FD06460DE0286840F48030F4E740F45B
:1013800080202860F7E700BFFFF74CFD801B642832
:1013900073D828688003F7D50CE0FFF743FD0646B5
:1013A00005E000BFFFF73EFD801B6428F0D82868E9
:1013B0008003F7D42078DFF8AC8280074FF0000A72
:1013C0003ED5A748001D016811F00C0F08D0006839
:1013D000C0F3810002280BD1D9F80000400207D4E5
:1013E0002868800716D5E068012800D112E033E1B3
:1013F000E068B8B10120C8F80000FFF713FD064609
:1014000005E000BFFFF70EFD801B0228C0D828684A
:101410008007F7D52868216920F0F80040EAC1006C
:1014200028600DE0C8F800A0FFF7FCFC064604E0C9
:10143000FFF7F8FC801B02281FD828688007F7D424
:101440002078000722D5864F87486169703771B1CF
:1014500001210160FFF7E6FC064604E0FFF7E2FC2D
:10146000801B022809D838688007F7D50EE0C0F83D
:1014700000A0FFF7D7FC064605E082E0FFF7D2FCAC
:10148000801B02287DD838688007F7D42078400771
:1014900068D5DFF8CCB100270BF13C0BDBF800007E
:1014A000C0000BD4DBF8001041F08051CBF80010E5
:1014B000DBF80000012700F0805000906B4E306890
:1014C000C00510D4306840F480703060FFF7AAFC8B
:1014D000009005E0FFF7A6FC0099401A022850D8BA
:1014E0003068C005F6D55E4EA0686C3601280FD076
:1014F0000528306810D020F001003060306820F0FE
:1015000004003060A068B8B1FFF78CFC00900FE0D9
:10151000306840F00100F4E740F004003060F7E785
:10152000FFF780FC0099411A41F28830814266D869
:1015300030688007F4D50EE0FFF774FC009007E0F8
:10154000FFF770FC0099411A41F28830814256D869
:1015500030688007F4D42FB1DBF8001021F08051FF
:10156000CBF80010A069C8B33D49091D0968C1F353
:10157000810102294AD00228504607D0C8F86000ED
:1015800000E03CE0FFF74EFC04463BE04746C8F86D
:101590006000FFF747FC064605E000BFFFF742FC8E
:1015A000801B02282BD828688001F7D4D4E90701D2
:1015B0000843A16A2E4A490802EB0141626A41EAE6
:1015C0008211084394F82C1040EA0161C9F8001018
:1015D00001203866FFF726FC044606E03EE000BF27
:1015E000FFF720FC001B022809D828688001F7D5E6
:1015F00034E000BFFFF716FC001B022802D90320CD
:10160000BDE8F88F28688001F4D427E00128F7D0DE
:10161000D9F80000E26900F4800191421CD1226AED
:1016200000F03F01914217D147F6C071626A014054
:10163000B1EB821F10D1A26A4FF0FF3300F44031AA
:1016400003EB5202B1EB024F06D194F82C1000F0DC
:101650007060B0EB016F01D00120D1E70020CFE72F
:101660000438024000004742800E474200700040AC
:101670000000FFFF10B5401EB0F1807F01D30120B4
:1016800010BD4FF0E02460610F21601700F0FAFDFB
:101690000020A06107202061002010BD10B590F847
:1016A0003C20012A22D0012280F83C20CA688C68A4
:1016B00022F4407222434C6822F4806222430C6878
:1016C00022F4006222430C6922F4805222434C69C6
:1016D00022F400522243C969002322F480420A43C3
:1016E00001684A6480F83C30002010BD022010BD23
:1016F00070B590F83C20012A32D0012480F83C409B
:10170000022280F83D2003685A689D6822F0700626
:101710000A6832435A60134B02689A4214D0B2F1FD
:10172000804F11D0104B9A420ED0104B9A420BD0E2
:101730000F4B9A4208D00F4B9A4205D00E4B9A425B
:1017400002D00E4B9A4204D1496825F08003194318
:10175000916080F83D40002180F83C10084670BD43
:10176000022070BD0000014000040040000800405D
:10177000000C0040000401400040014000180040FF
:1017800010B5040003D094F83D0010B107E001202B
:1017900010BD002084F83C00204600F01FF8022015
:1017A00084F83D00211D206800F0FAFB012084F838
:1017B000460084F83E0084F83F0084F8400084F836
:1017C000410084F8420084F8430084F8440084F81F
:1017D000450084F83D00002010BD000008B5104A07
:1017E00001681048914207D1016841F00101016090
:1017F000006800F0010005E00B4A914204D109485D
:10180000001F04E0009008BD084A9142FBD1016826
:1018100041F002010160006800F00200F2E7000000
:101820000000014044380240000400400004014030
:1018300070B5044690F83C000025012817D0012619
:1018400084F83C60022084F83D002068826822F021
:10185000770222F47F4282600868502838D00DDC7D
:1018600020284FD005DC90B3102811D14AE0022087
:1018700070BD302846D040280AD13BE060282FD0E8
:1018800070280DD0B0F5805F03D0B0F5005F12D0A6
:10189000012584F83D60002084F83C00284670BD96
:1018A000CB68D1E90121206800F0F3FB2068816852
:1018B00041F0770109E0CB68D1E90121206800F00F
:1018C000E8FB2068816841F480418160E1E719E02C
:1018D000CA684968206800F0B1FC5021206806E021
:1018E000CA684968206800F0BAFC6021206800F0EE
:1018F000DAFBCEE7CA684968206800F09FFC402107
:101900002068F4E7226801461046F0E710B586B07B
:10191000044614216846FEF71EFD0E4920688842E1
:1019200016D10D480021026842F0100202600068E2
:1019300000F0100005904FF4007000900220CDE9F7
:1019400001010120CDE9031069460448FFF76CF955
:1019500006B010BD000001403038024000100240C7
:1019600070B5044690F83C0000260D4601280FD0C3
:10197000012084F83C006AB1042A1DD0082A2FD027
:101980000C2A3FD00126002084F83C00304670BD70
:10199000022070BD206800F08FFB2068816941F053
:1019A000080181612068816921F00401816120685A
:1019B00081692A69114311E0206800F0ADFB2068BD
:1019C000816941F4006181612068816921F480614D
:1019D0008161206881692A6941EA02218161D2E737
:1019E000206800F0CFFB2068C16941F00801C161A7
:1019F0002068C16921F00401C1612068C1692A69B8
:101A0000114311E0206800F0F1FB2068C16941F446
:101A10000061C1612068C16921F48061C1612068F1
:101A2000C1692A6941EA0221C161ACE710B504002D
:101A300003D094F83D0010B107E0012010BD002054
:101A400084F83C00204600F01EF8022084F83D0097
:101A5000211D206800F0A4FA012084F8460084F8D3
:101A60003E0084F83F0084F8400084F8410084F888
:101A7000420084F8430084F8440084F8450084F868
:101A80003D00002010BD704710B50446022249B148
:101A900004290ED0082913D094F84100012816D04B
:101AA000012010BD94F83E000128F9D184F83E20B1
:101AB0000FE094F83F000128F2D184F83F2008E0BD
:101AC00094F840000128EBD184F8402001E084F82C
:101AD00041200122206800F0CFFA16492068164AFA
:101AE000884201D0904203D1436C43F400434364E5
:101AF0002068884213D0B0F1804F10D00F4988423F
:101B00000DD00F4988420AD00E49884207D0904232
:101B100005D00D49884202D00C49884204D1816821
:101B200001F00701062903D0016841F001010160BD
:101B3000002010BD000001400004014000040040EE
:101B400000080040000C0040004001400018004028
:101B5000FEE700001FB50021164800910191029197
:101B6000134A0391026001244FF480320461C0E9FA
:101B70000121017680F820101203C2625210C46164
:101B80008262C16080F830404461FEF7D3FD08B145
:101B9000FEF727FD04200094CDE901406946054881
:101BA000FEF722FD002801D0FEF71BFD1FBD00003F
:101BB00000200140100000201CB500240C490094B6
:101BC0000A48019408600846FEF787FE08B1FEF750
:101BD00008FD0C20CDE90004002269460448FEF708
:101BE00020FE002801D0FEF7FCFC1CBD0074004064
:101BF000B8000020114808B5016841F48001016077
:101C0000016801F480010091016841F40011016054
:101C10000068002200F40010009011461020FFF729
:101C200067FA1020FFF756FA002211463820FFF716
:101C30005FFABDE808403820FFF74CBA3038024060
:101C4000F0B587B014216846FEF785FB28480024CC
:101C5000016841F010010160016801F01001059177
:101C6000016841F020010160016801F02001059147
:101C7000016841F080010160016801F08001059177
:101C8000016841F001010160016801F00101059165
:101C9000016841F0080101600068164F00F008007B
:101CA00005900022C0213846FFF7B6F81020022622
:101CB0008DE8510069461048FEF7B6FFC02000903D
:101CC0000125CDE90154694638460394FEF7ACFF7F
:101CD000CDE90054694609480296FEF7A5FF0420A5
:101CE0008DE8310069460648FEF79EFF07B0F0BD5B
:101CF0003038024000140240001002400000024050
:101D0000000C02400D4810B50B4901600C494160C0
:101D100000214FF480428160C0E90312416181617A
:101D2000C1610162FFF784F8002803D0BDE81040CC
:101D3000FEF757BC10BD0000005800402C010020E9
:101D4000A086010010B596B000240F941094119451
:101D5000129413941C2108A81494FEF7FCFA202175
:101D60006846FEF7F8FA2A4828490160A721C0E929
:101D7000011440F2E731C0E903148021C0E90541B4
:101D8000FFF7FEFC08B1FEF72CFC4FF480500F90DB
:101D90000FA91F48FFF74CFD08B1FEF722FC1C48B5
:101DA000FFF744FE08B1FEF71CFC139413A9184872
:101DB0001494FFF79DFC08B1FEF713FC6020089017
:101DC0004FF4FA70CDE909040B940C940D940022A1
:101DD00008A90F480E94FFF7C3FD08B1FEF701FCF8
:101DE00000944FF40050CDE9044002940194039410
:101DF000694607480794FFF751FC08B1FEF7F1FB6D
:101E00000348FFF783FD16B010BD0000000001403D
:101E10008001002010B586B000241748009401947A
:101E20000294039404941349059401605321C0E97A
:101E300001140321C0E903148461FFF7A1FC08B178
:101E4000FEF7CFFB4FF48050009069460A48FFF739
:101E5000EFFC08B1FEF7C5FB2020CDE9040404A97E
:101E60000548FFF745FC002801D0FEF7BAFB06B095
:101E700010BD000000040040C801002010B586B06D
:101E80000024174800940194029403940494134985
:101E90000594C0E90014A721C0E902418021046132
:101EA000C0E90541FFF76CFC08B1FEF79AFB4FF45F
:101EB0008050009069460A48FFF7BAFC08B1FEF767
:101EC00090FB2020CDE9040404A90548FFF710FC8D
:101ED000002801D0FEF785FB06B010BD00040140CC
:101EE00010020020FEE7FEE770477047FFF798B842
:101EF00030B593B030216846FEF72DFA14210CA8B6
:101F0000FEF729FA1D480025016841F08051016063
:101F1000006800F0805011901948016841F4804138
:101F200001600068022400F48040119001200090BC
:101F3000000401908001CDE9064008AA0420A821F0
:101F400082E813000B906846FFF7DEF908B172B61D
:101F5000FEE70CA90F2081E831004FF4A0500F904C
:101F60004FF48050109005210CA8FFF7F3F80028DB
:101F700001D072B6FEE713B030BD00004038024019
:101F8000007000400248016841F470010160704730
:101F900088ED00E00148FEF76CBC0000B8000020AE
:101FA000F0B50268294C2A4D2A4E2B4F2B4B4FF08F
:101FB000804CA04209D0604507D0A84205D0B0426D
:101FC00003D0B84201D0984204D122F0700E4A6882
:101FD00042EA0E02A0421BD0604519D0A84217D099
:101FE000B04215D0B84213D0984211D01C4DA8422F
:101FF0000ED01C4DA8420BD01B4DA84208D01B4D43
:10200000A84205D01A4DA84202D01A4DA84203D1C9
:1020100022F44075CA682A434D6922F080022A439F
:1020200002608A68C2620A688262A04201D0984255
:1020300001D109690163012141610169C90703D027
:10204000016921F001010161F0BD000000000140C3
:102050000004004000080040000C00400004014063
:102060000040014000440140004801400018004089
:10207000001C00400020004010B501F01F030121AA
:10208000046A99408C430462016A9A4011430162D8
:1020900010BD10B5846842EA032224F47F440A4349
:1020A0002243826010BD826822F070020A4342F02F
:1020B0000701816070470000F0B5036A026A22F0F0
:1020C0000102026242688469124E24F073050C68B2
:1020D0002C4323F002058B682B430D4DA84201D001
:1020E000B04205D123F00807CB683B4323F004033B
:1020F000A84201D0B04205D14D6922F44072154387
:102100008A692A4342608461496841630362F0BD81
:102110000000014000040140F0B5026A036A23F0A8
:1021200010030362436884690D6824F4E64444EABA
:1021300005248D6822F0200242EA05120F4D104E50
:10214000A84201D0B04206D1CF6822F0800242EA14
:10215000071222F04002A84201D0B04207D14D69D7
:1021600023F4406343EA85038D6943EA85034360B2
:102170008461496881630262F0BD00000000014093
:1021800000040140F0B5026A036A23F4807303621D
:102190004368C46922F4007224F073050C68124E7F
:1021A0002C438D6842EA05220E4DA84201D0B04270
:1021B00006D1CF6822F4006242EA072222F480624C
:1021C000A84201D0B04207D14D6923F4405343EAFD
:1021D00005138D6943EA05134360C4614968C1630F
:1021E0000262F0BD000001400004014030B5046A05
:1021F000026A22F4805202624268C3690D6823F4C5
:10220000E64343EA05238D6824F4005444EA053488
:10221000084DA84202D0084DA84204D14D6922F4CD
:10222000804242EA85124260C361496801640462E7
:1022300030BD0000000001400004014010B5036AF9
:10224000046A24F001040462846924F0F00444EA7E
:10225000021423F00A020A438461026210BD10B521
:10226000036A046A24F010040462846923F0A00362
:1022700024F4704444EA023243EA011182610162AB
:1022800010BDFEE70907090E002804DB00F1E0207D
:1022900080F80014704700F00F0000F1E02080F893
:1022A000141D7047FEF7C4FEFFF722FEFFF7C8FCBF
:1022B000FFF7A0FCFFF74EFCFFF724FDFFF742FD00
:1022C000FFF7A8FDFFF778FCFFF7D8FD00210248D3
:1022D000FFF7DAFBFEE70000800100204FF04070BE
:1022E000E1EE100A704700061016000610160000F6
:1022F00000000000000001020304060708090000B6
:102300000000010203040000282300080000002050
:1023100010000000C401000838230008100000204D
:10232000A8080000E0010008010000001000000003
:08233000000000000024F4008D
:040000050800018965
:00000001FF
